{"abi":[{"type":"constructor","inputs":[],"stateMutability":"nonpayable"},{"type":"receive","stateMutability":"payable"},{"type":"function","name":"AVSReward","inputs":[],"outputs":[{"name":"","type":"uint256","internalType":"uint256"}],"stateMutability":"view"},{"type":"function","name":"bridge","inputs":[{"name":"tokenAddress","type":"address","internalType":"address"},{"name":"amountIn","type":"uint256","internalType":"uint256"},{"name":"amountOut","type":"uint256","internalType":"uint256"},{"name":"destinationVault","type":"address","internalType":"address"},{"name":"destinationAddress","type":"address","internalType":"address"},{"name":"canonicalAttestation","type":"bytes","internalType":"bytes"}],"outputs":[],"stateMutability":"payable"},{"type":"function","name":"bridgeFee","inputs":[],"outputs":[{"name":"","type":"uint256","internalType":"uint256"}],"stateMutability":"view"},{"type":"function","name":"bridgeRequests","inputs":[{"name":"","type":"uint256","internalType":"uint256"}],"outputs":[{"name":"user","type":"address","internalType":"address"},{"name":"tokenAddress","type":"address","internalType":"address"},{"name":"amountIn","type":"uint256","internalType":"uint256"},{"name":"amountOut","type":"uint256","internalType":"uint256"},{"name":"destinationVault","type":"address","internalType":"address"},{"name":"destinationAddress","type":"address","internalType":"address"},{"name":"transferIndex","type":"uint256","internalType":"uint256"},{"name":"canonicalAttestation","type":"bytes","internalType":"bytes"}],"stateMutability":"view"},{"type":"function","name":"canonicalSigner","inputs":[],"outputs":[{"name":"","type":"address","internalType":"address"}],"stateMutability":"view"},{"type":"function","name":"crankGasCost","inputs":[],"outputs":[{"name":"","type":"uint256","internalType":"uint256"}],"stateMutability":"view"},{"type":"function","name":"currentBridgeRequestId","inputs":[],"outputs":[{"name":"","type":"uint256","internalType":"uint256"}],"stateMutability":"view"},{"type":"function","name":"eip712Domain","inputs":[],"outputs":[{"name":"fields","type":"bytes1","internalType":"bytes1"},{"name":"name","type":"string","internalType":"string"},{"name":"version","type":"string","internalType":"string"},{"name":"chainId","type":"uint256","internalType":"uint256"},{"name":"verifyingContract","type":"address","internalType":"address"},{"name":"salt","type":"bytes32","internalType":"bytes32"},{"name":"extensions","type":"uint256[]","internalType":"uint256[]"}],"stateMutability":"view"},{"type":"function","name":"getDigest","inputs":[{"name":"data","type":"tuple","internalType":"struct Structs.BridgeRequestData","components":[{"name":"user","type":"address","internalType":"address"},{"name":"tokenAddress","type":"address","internalType":"address"},{"name":"amountIn","type":"uint256","internalType":"uint256"},{"name":"amountOut","type":"uint256","internalType":"uint256"},{"name":"destinationVault","type":"address","internalType":"address"},{"name":"destinationAddress","type":"address","internalType":"address"},{"name":"transferIndex","type":"uint256","internalType":"uint256"},{"name":"canonicalAttestation","type":"bytes","internalType":"bytes"}]}],"outputs":[{"name":"","type":"bytes32","internalType":"bytes32"}],"stateMutability":"view"},{"type":"function","name":"getSigner","inputs":[{"name":"data","type":"tuple","internalType":"struct Structs.BridgeRequestData","components":[{"name":"user","type":"address","internalType":"address"},{"name":"tokenAddress","type":"address","internalType":"address"},{"name":"amountIn","type":"uint256","internalType":"uint256"},{"name":"amountOut","type":"uint256","internalType":"uint256"},{"name":"destinationVault","type":"address","internalType":"address"},{"name":"destinationAddress","type":"address","internalType":"address"},{"name":"transferIndex","type":"uint256","internalType":"uint256"},{"name":"canonicalAttestation","type":"bytes","internalType":"bytes"}]},{"name":"signature","type":"bytes","internalType":"bytes"}],"outputs":[{"name":"","type":"address","internalType":"address"}],"stateMutability":"view"},{"type":"function","name":"nextUserTransferIndexes","inputs":[{"name":"","type":"address","internalType":"address"}],"outputs":[{"name":"","type":"uint256","internalType":"uint256"}],"stateMutability":"view"},{"type":"function","name":"owner","inputs":[],"outputs":[{"name":"","type":"address","internalType":"address"}],"stateMutability":"view"},{"type":"function","name":"publishAttestation","inputs":[{"name":"attestation","type":"bytes","internalType":"bytes"},{"name":"_bridgeRequestId","type":"uint256","internalType":"uint256"}],"outputs":[],"stateMutability":"nonpayable"},{"type":"function","name":"releaseFunds","inputs":[{"name":"canonicalSignature","type":"bytes","internalType":"bytes"},{"name":"AVSSignature","type":"bytes","internalType":"bytes"},{"name":"data","type":"tuple","internalType":"struct Structs.BridgeRequestData","components":[{"name":"user","type":"address","internalType":"address"},{"name":"tokenAddress","type":"address","internalType":"address"},{"name":"amountIn","type":"uint256","internalType":"uint256"},{"name":"amountOut","type":"uint256","internalType":"uint256"},{"name":"destinationVault","type":"address","internalType":"address"},{"name":"destinationAddress","type":"address","internalType":"address"},{"name":"transferIndex","type":"uint256","internalType":"uint256"},{"name":"canonicalAttestation","type":"bytes","internalType":"bytes"}]}],"outputs":[],"stateMutability":"nonpayable"},{"type":"function","name":"removeWhitelistedSigner","inputs":[{"name":"signer","type":"address","internalType":"address"}],"outputs":[],"stateMutability":"nonpayable"},{"type":"function","name":"renounceOwnership","inputs":[],"outputs":[],"stateMutability":"nonpayable"},{"type":"function","name":"setAVSReward","inputs":[{"name":"_AVSReward","type":"uint256","internalType":"uint256"}],"outputs":[],"stateMutability":"nonpayable"},{"type":"function","name":"setBridgeFee","inputs":[{"name":"_bridgeFee","type":"uint256","internalType":"uint256"}],"outputs":[],"stateMutability":"nonpayable"},{"type":"function","name":"setCanonicalSigner","inputs":[{"name":"_canonicalSigner","type":"address","internalType":"address"}],"outputs":[],"stateMutability":"nonpayable"},{"type":"function","name":"setCrankGasCost","inputs":[{"name":"_crankGasCost","type":"uint256","internalType":"uint256"}],"outputs":[],"stateMutability":"nonpayable"},{"type":"function","name":"transferOwnership","inputs":[{"name":"newOwner","type":"address","internalType":"address"}],"outputs":[],"stateMutability":"nonpayable"},{"type":"function","name":"whitelistSigner","inputs":[{"name":"signer","type":"address","internalType":"address"}],"outputs":[],"stateMutability":"nonpayable"},{"type":"function","name":"whitelistedSigners","inputs":[{"name":"","type":"address","internalType":"address"}],"outputs":[{"name":"","type":"bool","internalType":"bool"}],"stateMutability":"view"},{"type":"event","name":"AVSAttestation","inputs":[{"name":"attestation","type":"bytes","indexed":true,"internalType":"bytes"},{"name":"bridgeRequestId","type":"uint256","indexed":true,"internalType":"uint256"}],"anonymous":false},{"type":"event","name":"BridgeRequest","inputs":[{"name":"user","type":"address","indexed":true,"internalType":"address"},{"name":"tokenAddress","type":"address","indexed":true,"internalType":"address"},{"name":"bridgeRequestId","type":"uint256","indexed":true,"internalType":"uint256"},{"name":"amountIn","type":"uint256","indexed":false,"internalType":"uint256"},{"name":"amountOut","type":"uint256","indexed":false,"internalType":"uint256"},{"name":"destinationVault","type":"address","indexed":false,"internalType":"address"},{"name":"destinationAddress","type":"address","indexed":false,"internalType":"address"},{"name":"transferIndex","type":"uint256","indexed":false,"internalType":"uint256"},{"name":"canonicalAttestation","type":"bytes","indexed":false,"internalType":"bytes"}],"anonymous":false},{"type":"event","name":"EIP712DomainChanged","inputs":[],"anonymous":false},{"type":"event","name":"OwnershipTransferred","inputs":[{"name":"previousOwner","type":"address","indexed":true,"internalType":"address"},{"name":"newOwner","type":"address","indexed":true,"internalType":"address"}],"anonymous":false},{"type":"error","name":"ECDSAInvalidSignature","inputs":[]},{"type":"error","name":"ECDSAInvalidSignatureLength","inputs":[{"name":"length","type":"uint256","internalType":"uint256"}]},{"type":"error","name":"ECDSAInvalidSignatureS","inputs":[{"name":"s","type":"bytes32","internalType":"bytes32"}]},{"type":"error","name":"InvalidShortString","inputs":[]},{"type":"error","name":"OwnableInvalidOwner","inputs":[{"name":"owner","type":"address","internalType":"address"}]},{"type":"error","name":"OwnableUnauthorizedAccount","inputs":[{"name":"account","type":"address","internalType":"address"}]},{"type":"error","name":"ReentrancyGuardReentrantCall","inputs":[]},{"type":"error","name":"StringTooLong","inputs":[{"name":"str","type":"string","internalType":"string"}]}],"bytecode":{"object":"0x610160604052346101b6576040516100186040826101bb565b600b815260208101906a5a6172617468757374726160a81b8252604051916100416040846101bb565b600183526020830191603160f81b835233156101a05760008054336001600160a01b0319821681178355916001600160a01b03909116907f8be0079c531659141344cd1fd0a4f28419497f9722a3daafe3b4186f6b6457e09080a3600180556100a9816101f4565b610120526100b6846103b8565b61014052519020918260e05251902080610100524660a0526040519060208201927f8b73c3c69bb8fe3d512ecc4cf759cc79239f7b179b0ffacaa9a75d522b39400f8452604083015260608201524660808201523060a082015260a0815261011f60c0826101bb565b5190206080523060c0526000600a81905560098190556008819055600b80546001600160a01b0319163317905560065560405161166d90816105578239608051816114cb015260a05181611588015260c05181611495015260e0518161151a0152610100518161154001526101205181610889015261014051816108b20152f35b631e4fbdf760e01b600052600060045260246000fd5b600080fd5b601f909101601f19168101906001600160401b038211908210176101de57604052565b634e487b7160e01b600052604160045260246000fd5b9081516020811060001461028c575090601f815111610230576020815191015160208210610220571790565b6000198260200360031b1b161790565b6040519063305a27a960e01b8252602060048301528181519182602483015260005b8381106102745750508160006044809484010152601f80199101168101030190fd5b60208282018101516044878401015285935001610252565b6001600160401b0381116101de57600254600181811c911680156103ae575b602082101461039857601f8111610362575b50602092601f82116001146102fd57928192936000926102f2575b50508160011b916000199060031b1c19161760025560ff90565b0151905038806102d8565b601f198216936002600052806000209160005b86811061034a5750836001959610610331575b505050811b0160025560ff90565b015160001960f88460031b161c19169055388080610323565b91926020600181928685015181550194019201610310565b6002600052601f6020600020910160051c810190601f830160051c015b81811061038c57506102bd565b6000815560010161037f565b634e487b7160e01b600052602260045260246000fd5b90607f16906102ab565b90815160208110600014610440575090601f8151116103e4576020815191015160208210610220571790565b6040519063305a27a960e01b8252602060048301528181519182602483015260005b8381106104285750508160006044809484010152601f80199101168101030190fd5b60208282018101516044878401015285935001610406565b6001600160401b0381116101de57600354600181811c9116801561054c575b602082101461039857601f8111610516575b50602092601f82116001146104b157928192936000926104a6575b50508160011b916000199060031b1c19161760035560ff90565b01519050388061048c565b601f198216936003600052806000209160005b8681106104fe57508360019596106104e5575b505050811b0160035560ff90565b015160001960f88460031b161c191690553880806104d7565b919260206001819286850151815501940192016104c4565b6003600052601f6020600020910160051c810190601f830160051c015b8181106105405750610471565b60008155600101610533565b90607f169061045f56fe6080604052600436101561001b575b361561001957600080fd5b005b60003560e01c8062a3a65a14610b7f57806331a9bd9614610b5e5780633265de8e14610b1c578063463577b914610aa857806346713cc414610a7f5780634c87b25e14610a3c5780634ddb70bf14610a025780636ee1cc17146109e4578063715018a61461098b57806382b12dd71461096d57806384b0196e146108705780638c60205e146108525780638da5cb5b14610829578063998cdf83146108085780639f89c8a214610747578063af4da11214610702578063b073dae9146103ac578063dab8b9421461026a578063e3a30deb14610249578063f2fde38b146101c0578063f64474d5146101a2578063f7adc3b3146101605763fcc4ee050361000e573461015b57602036600319011261015b576001600160a01b0361013d610f53565b166000526005602052602060ff604060002054166040519015158152f35b600080fd5b3461015b57602036600319011261015b576004356001600160401b03811161015b5761019a610195602092369060040161101c565b611216565b604051908152f35b3461015b57600036600319011261015b576020600654604051908152f35b3461015b57602036600319011261015b576101d9610f53565b6101e1611307565b6001600160a01b0316801561023357600080546001600160a01b03198116831782556001600160a01b0316907f8be0079c531659141344cd1fd0a4f28419497f9722a3daafe3b4186f6b6457e09080a3005b631e4fbdf760e01b600052600060045260246000fd5b3461015b57602036600319011261015b57610262611307565b600435600a55005b3461015b57604036600319011261015b576004356001600160401b03811161015b5761029a903690600401610fd5565b6102a26112e5565b33600052600560205260ff6040600020541615610372576020906102cf60405191828151948592016110ba565b806024359281010390207feb025381a670ddf36d45dab7eecb37e2ed3eca65cb3f70b4a921939a79d4bec5600080a360095480471061036b575b600080808093335af161031a6111e6565b50156103265760018055005b60405162461bcd60e51b815260206004820152601960248201527f4661696c656420746f2073656e642041565320726577617264000000000000006044820152606490fd5b5047610309565b60405162461bcd60e51b815260206004820152601260248201527124b73b30b634b21020ab299039b4b3b732b960711b6044820152606490fd5b3461015b57606036600319011261015b576004356001600160401b03811161015b576103dc903690600401610fd5565b6024356001600160401b03811161015b576103fb903690600401610fd5565b6044356001600160401b03811161015b5761043761042061044092369060040161101c565b936104296112e5565b61043285611216565b611330565b9092919261136c565b600b546001600160a01b039081169116036106bd576104376104659161043284611216565b6001600160a01b031660009081526005602052604090205460ff16156106845760808101516001600160a01b0316300361063f576020818101805160608401805160405163095ea7b360e01b81523060048201526024810191909152949293909291859060449082906000906001600160a01b03165af19283156106185761053494602094610624575b505160a09190910151915160405163a9059cbb60e01b81526001600160a01b039384166004820152602481019190915293849290911690829060009082906044820190565b03925af18015610618576105eb575b50600a543a8102908082043a14901517156105d5578047106105ce575b8061056c575b60018055005b600080808093335af161057d6111e6565b50156105895780610566565b60405162461bcd60e51b815260206004820152601860248201527f4661696c656420746f2073656e64206372616e6b2066656500000000000000006044820152606490fd5b5047610560565b634e487b7160e01b600052601160045260246000fd5b61060c9060203d602011610611575b6106048183610f99565b8101906111ce565b610543565b503d6105fa565b6040513d6000823e3d90fd5b61063a90853d8711610611576106048183610f99565b6104ef565b60405162461bcd60e51b815260206004820152601960248201527f496e76616c69642064657374696e6174696f6e207661756c74000000000000006044820152606490fd5b60405162461bcd60e51b8152602060048201526011602482015270496e76616c6964207369676e617475726560781b6044820152606490fd5b60405162461bcd60e51b815260206004820152601b60248201527f496e76616c69642063616e6f6e6963616c207369676e617475726500000000006044820152606490fd5b3461015b57602036600319011261015b5761071b610f53565b610723611307565b6001600160a01b03166000908152600560205260409020805460ff19166001179055005b3461015b57602036600319011261015b576004356000526007602052604060002060018060a01b03815416610804600760018060a01b03600185015416936002810154600382015460018060a01b036004840154169060018060a01b03600585015416926107cb6006860154956107c4604051809981930161113c565b0387610f99565b6040519889988952602089015260408801526060870152608086015260a085015260c084015261010060e08401526101008301906110dd565b0390f35b3461015b57602036600319011261015b57610821611307565b600435600855005b3461015b57600036600319011261015b576000546040516001600160a01b039091168152602090f35b3461015b57600036600319011261015b576020600a54604051908152f35b3461015b57600036600319011261015b5761090f6108ad7f00000000000000000000000000000000000000000000000000000000000000006113f4565b6108d67f000000000000000000000000000000000000000000000000000000000000000061145b565b602061091d604051926108e98385610f99565b600084526000368137604051958695600f60f81b875260e08588015260e08701906110dd565b9085820360408701526110dd565b466060850152306080850152600060a085015283810360c085015281808451928381520193019160005b82811061095657505050500390f35b835185528695509381019392810192600101610947565b3461015b57600036600319011261015b576020600854604051908152f35b3461015b57600036600319011261015b576109a4611307565b600080546001600160a01b0319811682556001600160a01b03167f8be0079c531659141344cd1fd0a4f28419497f9722a3daafe3b4186f6b6457e08280a3005b3461015b57600036600319011261015b576020600954604051908152f35b3461015b57602036600319011261015b576001600160a01b03610a23610f53565b1660005260046020526020604060002054604051908152f35b3461015b57602036600319011261015b57610a55610f53565b610a5d611307565b600b80546001600160a01b0319166001600160a01b0392909216919091179055005b3461015b57600036600319011261015b57600b546040516001600160a01b039091168152602090f35b3461015b57604036600319011261015b576004356001600160401b03811161015b57610ad890369060040161101c565b602435906001600160401b03821161015b57610437610b0a91610432610b046020953690600401610fd5565b91611216565b6040516001600160a01b039091168152f35b3461015b57602036600319011261015b57610b35610f53565b610b3d611307565b6001600160a01b03166000908152600560205260409020805460ff19169055005b3461015b57602036600319011261015b57610b77611307565b600435600955005b60c036600319011261015b57610b93610f53565b6044356064356001600160a01b038116906024359082900361015b576084356001600160a01b0381169081900361015b5760a4356001600160401b03811161015b57610be3903690600401610fd5565b94610bec6112e5565b6008543403610f17576040516323b872dd60e01b8152336004820152306024820152604481018490526001600160a01b039190911693906020816064816000895af190811561061857600091610ef8575b5015610ec157600794336000526004602052604060002054936006549586818a7f8ed7e4b72075b17af0eebc2b80fcd8063064321a9a579f84a12ce0cb998b35d76040518681528760208201528860408201528960608201528a608082015260c060a082015280610cb3339460c08301906110dd565b0390a460405196610cc388610f7d565b33885260208089019283526040808a0194855260608a0195865260808a0196875260a08a0197885260c08a0198895260e08a019b8c526000928352908a90529020965187546001600160a01b03199081166001600160a01b039283161789559151600189018054841691831691909117905591516002880155915160038701559151600486018054831691841691909117905591516005850180549093169116179055516006820155915180519092909101906001600160401b038111610eab57610d8e8254611102565b601f8111610e63575b50602092601f8211600114610e005792819293600092610df5575b50508160011b916000199060031b1c19161790555b610dd26006546111bf565b6006553360005260046020526040600020610ded81546111bf565b905560018055005b015190508380610db2565b601f1982169383600052806000209160005b868110610e4b5750836001959610610e32575b505050811b019055610dc7565b015160001960f88460031b161c19169055838080610e25565b91926020600181928685015181550194019201610e12565b826000526020600020601f830160051c81019160208410610ea1575b601f0160051c01905b818110610e955750610d97565b60008155600101610e88565b9091508190610e7f565b634e487b7160e01b600052604160045260246000fd5b60405162461bcd60e51b815260206004820152600f60248201526e151c985b9cd9995c8819985a5b1959608a1b6044820152606490fd5b610f11915060203d602011610611576106048183610f99565b87610c3d565b60405162461bcd60e51b8152602060048201526014602482015273496e636f7272656374206272696467652066656560601b6044820152606490fd5b600435906001600160a01b038216820361015b57565b35906001600160a01b038216820361015b57565b61010081019081106001600160401b03821117610eab57604052565b90601f801991011681019081106001600160401b03821117610eab57604052565b6001600160401b038111610eab57601f01601f191660200190565b81601f8201121561015b57803590610fec82610fba565b92610ffa6040519485610f99565b8284526020838301011161015b57816000926020809301838601378301015290565b91906101008382031261015b576040519061103682610f7d565b819361104181610f69565b835261104f60208201610f69565b6020840152604081013560408401526060810135606084015261107460808201610f69565b608084015261108560a08201610f69565b60a084015260c081013560c084015260e0810135916001600160401b03831161015b5760e0926110b59201610fd5565b910152565b60005b8381106110cd5750506000910152565b81810151838201526020016110bd565b906020916110f6815180928185528580860191016110ba565b601f01601f1916010190565b90600182811c92168015611132575b602083101461111c57565b634e487b7160e01b600052602260045260246000fd5b91607f1691611111565b6000929181549161114c83611102565b80835292600181169081156111a2575060011461116857505050565b60009081526020812093945091925b838310611188575060209250010190565b600181602092949394548385870101520191019190611177565b915050602093945060ff929192191683830152151560051b010190565b60001981146105d55760010190565b9081602091031261015b5751801515810361015b5790565b3d15611211573d906111f782610fba565b916112056040519384610f99565b82523d6000602084013e565b606090565b60429060018060a01b038151169060018060a01b0360208201511690604081015190606081015160018060a01b036080830151169060c060018060a01b0360a085015116930151936040519560208701977f24d70767461c06c1aeacae790adba5d3dff0d413ba8713fb9926686d4c4ceef5895260408801526060870152608086015260a085015260c084015260e083015261010082015261010081526112bf61012082610f99565b5190206112ca611492565b906040519161190160f01b8352600283015260228201522090565b6002600154146112f6576002600155565b633ee5aeb560e01b60005260046000fd5b6000546001600160a01b0316330361131b57565b63118cdaa760e01b6000523360045260246000fd5b81519190604183036113615761135a92506020820151906060604084015193015160001a906115ae565b9192909190565b505060009160029190565b91909160048110156113de578061138257509050565b60006001820361139d5763f645eedf60e01b60005260046000fd5b50600281036113bb578263fce698f760e01b60005260045260246000fd5b90916003600092146113cb575050565b6335e2f38360e21b825260045260249150fd5b634e487b7160e01b600052602160045260246000fd5b60ff811461143e5760ff811690601f821161142d5760408051926114188285610f99565b6020808552840191601f190136833783525290565b632cd44ac360e21b60005260046000fd5b506040516114588161145181600261113c565b0382610f99565b90565b60ff811461147f5760ff811690601f821161142d5760408051926114188285610f99565b506040516114588161145181600361113c565b307f00000000000000000000000000000000000000000000000000000000000000006001600160a01b03161480611585575b156114ed577f000000000000000000000000000000000000000000000000000000000000000090565b60405160208101907f8b73c3c69bb8fe3d512ecc4cf759cc79239f7b179b0ffacaa9a75d522b39400f82527f000000000000000000000000000000000000000000000000000000000000000060408201527f000000000000000000000000000000000000000000000000000000000000000060608201524660808201523060a082015260a0815261157f60c082610f99565b51902090565b507f000000000000000000000000000000000000000000000000000000000000000046146114c4565b91907f7fffffffffffffffffffffffffffffff5d576e7357a4501ddfe92f46681b20a0841161162b579160209360809260ff60009560405194855216868401526040830152606082015282805260015afa15610618576000516001600160a01b0381161561161f5790600090600090565b50600090600190600090565b5050506000916003919056fea2646970667358221220642f31f99104eac79fd0f6555d00d45eb6436af6a7e32f8d30fc289d804c291264736f6c634300081a0033","linkReferences":{}},"methodIdentifiers":{"AVSReward()":"6ee1cc17","bridge(address,uint256,uint256,address,address,bytes)":"00a3a65a","bridgeFee()":"82b12dd7","bridgeRequests(uint256)":"9f89c8a2","canonicalSigner()":"46713cc4","crankGasCost()":"8c60205e","currentBridgeRequestId()":"f64474d5","eip712Domain()":"84b0196e","getDigest((address,address,uint256,uint256,address,address,uint256,bytes))":"f7adc3b3","getSigner((address,address,uint256,uint256,address,address,uint256,bytes),bytes)":"463577b9","nextUserTransferIndexes(address)":"4ddb70bf","owner()":"8da5cb5b","publishAttestation(bytes,uint256)":"dab8b942","releaseFunds(bytes,bytes,(address,address,uint256,uint256,address,address,uint256,bytes))":"b073dae9","removeWhitelistedSigner(address)":"3265de8e","renounceOwnership()":"715018a6","setAVSReward(uint256)":"31a9bd96","setBridgeFee(uint256)":"998cdf83","setCanonicalSigner(address)":"4c87b25e","setCrankGasCost(uint256)":"e3a30deb","transferOwnership(address)":"f2fde38b","whitelistSigner(address)":"af4da112","whitelistedSigners(address)":"fcc4ee05"},"id":43}