{"abi":[{"type":"constructor","inputs":[],"stateMutability":"nonpayable"},{"type":"receive","stateMutability":"payable"},{"type":"function","name":"AVSReward","inputs":[],"outputs":[{"name":"","type":"uint256","internalType":"uint256"}],"stateMutability":"view"},{"type":"function","name":"bridge","inputs":[{"name":"tokenAddress","type":"address","internalType":"address"},{"name":"amountIn","type":"uint256","internalType":"uint256"},{"name":"amountOut","type":"uint256","internalType":"uint256"},{"name":"destinationVault","type":"address","internalType":"address"},{"name":"destinationAddress","type":"address","internalType":"address"},{"name":"canonicalAttestation","type":"bytes","internalType":"bytes"}],"outputs":[],"stateMutability":"payable"},{"type":"function","name":"bridgeFee","inputs":[],"outputs":[{"name":"","type":"uint256","internalType":"uint256"}],"stateMutability":"view"},{"type":"function","name":"bridgeRequests","inputs":[{"name":"","type":"uint256","internalType":"uint256"}],"outputs":[{"name":"user","type":"address","internalType":"address"},{"name":"tokenAddress","type":"address","internalType":"address"},{"name":"amountIn","type":"uint256","internalType":"uint256"},{"name":"amountOut","type":"uint256","internalType":"uint256"},{"name":"destinationVault","type":"address","internalType":"address"},{"name":"destinationAddress","type":"address","internalType":"address"},{"name":"transferIndex","type":"uint256","internalType":"uint256"},{"name":"canonicalAttestation","type":"bytes","internalType":"bytes"}],"stateMutability":"view"},{"type":"function","name":"canonicalSigner","inputs":[],"outputs":[{"name":"","type":"address","internalType":"address"}],"stateMutability":"view"},{"type":"function","name":"crankGasCost","inputs":[],"outputs":[{"name":"","type":"uint256","internalType":"uint256"}],"stateMutability":"view"},{"type":"function","name":"currentBridgeRequestId","inputs":[],"outputs":[{"name":"","type":"uint256","internalType":"uint256"}],"stateMutability":"view"},{"type":"function","name":"eip712Domain","inputs":[],"outputs":[{"name":"fields","type":"bytes1","internalType":"bytes1"},{"name":"name","type":"string","internalType":"string"},{"name":"version","type":"string","internalType":"string"},{"name":"chainId","type":"uint256","internalType":"uint256"},{"name":"verifyingContract","type":"address","internalType":"address"},{"name":"salt","type":"bytes32","internalType":"bytes32"},{"name":"extensions","type":"uint256[]","internalType":"uint256[]"}],"stateMutability":"view"},{"type":"function","name":"getDigest","inputs":[{"name":"data","type":"tuple","internalType":"struct Structs.BridgeRequestData","components":[{"name":"user","type":"address","internalType":"address"},{"name":"tokenAddress","type":"address","internalType":"address"},{"name":"amountIn","type":"uint256","internalType":"uint256"},{"name":"amountOut","type":"uint256","internalType":"uint256"},{"name":"destinationVault","type":"address","internalType":"address"},{"name":"destinationAddress","type":"address","internalType":"address"},{"name":"transferIndex","type":"uint256","internalType":"uint256"},{"name":"canonicalAttestation","type":"bytes","internalType":"bytes"}]}],"outputs":[{"name":"","type":"bytes32","internalType":"bytes32"}],"stateMutability":"view"},{"type":"function","name":"getSigner","inputs":[{"name":"data","type":"tuple","internalType":"struct Structs.BridgeRequestData","components":[{"name":"user","type":"address","internalType":"address"},{"name":"tokenAddress","type":"address","internalType":"address"},{"name":"amountIn","type":"uint256","internalType":"uint256"},{"name":"amountOut","type":"uint256","internalType":"uint256"},{"name":"destinationVault","type":"address","internalType":"address"},{"name":"destinationAddress","type":"address","internalType":"address"},{"name":"transferIndex","type":"uint256","internalType":"uint256"},{"name":"canonicalAttestation","type":"bytes","internalType":"bytes"}]},{"name":"signature","type":"bytes","internalType":"bytes"}],"outputs":[{"name":"","type":"address","internalType":"address"}],"stateMutability":"view"},{"type":"function","name":"owner","inputs":[],"outputs":[{"name":"","type":"address","internalType":"address"}],"stateMutability":"view"},{"type":"function","name":"publishAttestation","inputs":[{"name":"attestation","type":"bytes","internalType":"bytes"},{"name":"_bridgeRequestId","type":"uint256","internalType":"uint256"}],"outputs":[],"stateMutability":"nonpayable"},{"type":"function","name":"releaseFunds","inputs":[{"name":"canonicalSignature","type":"bytes","internalType":"bytes"},{"name":"AVSSignature","type":"bytes","internalType":"bytes"},{"name":"data","type":"tuple","internalType":"struct Structs.BridgeRequestData","components":[{"name":"user","type":"address","internalType":"address"},{"name":"tokenAddress","type":"address","internalType":"address"},{"name":"amountIn","type":"uint256","internalType":"uint256"},{"name":"amountOut","type":"uint256","internalType":"uint256"},{"name":"destinationVault","type":"address","internalType":"address"},{"name":"destinationAddress","type":"address","internalType":"address"},{"name":"transferIndex","type":"uint256","internalType":"uint256"},{"name":"canonicalAttestation","type":"bytes","internalType":"bytes"}]}],"outputs":[],"stateMutability":"nonpayable"},{"type":"function","name":"removeWhitelistedSigner","inputs":[{"name":"signer","type":"address","internalType":"address"}],"outputs":[],"stateMutability":"nonpayable"},{"type":"function","name":"renounceOwnership","inputs":[],"outputs":[],"stateMutability":"nonpayable"},{"type":"function","name":"setAVSReward","inputs":[{"name":"_AVSReward","type":"uint256","internalType":"uint256"}],"outputs":[],"stateMutability":"nonpayable"},{"type":"function","name":"setBridgeFee","inputs":[{"name":"_bridgeFee","type":"uint256","internalType":"uint256"}],"outputs":[],"stateMutability":"nonpayable"},{"type":"function","name":"setCanonicalSigner","inputs":[{"name":"_canonicalSigner","type":"address","internalType":"address"}],"outputs":[],"stateMutability":"nonpayable"},{"type":"function","name":"setCrankGasCost","inputs":[{"name":"_crankGasCost","type":"uint256","internalType":"uint256"}],"outputs":[],"stateMutability":"nonpayable"},{"type":"function","name":"transferOwnership","inputs":[{"name":"newOwner","type":"address","internalType":"address"}],"outputs":[],"stateMutability":"nonpayable"},{"type":"function","name":"whitelistSigner","inputs":[{"name":"signer","type":"address","internalType":"address"}],"outputs":[],"stateMutability":"nonpayable"},{"type":"event","name":"AVSAttestation","inputs":[{"name":"attestation","type":"bytes","indexed":true,"internalType":"bytes"},{"name":"bridgeRequestId","type":"uint256","indexed":true,"internalType":"uint256"}],"anonymous":false},{"type":"event","name":"BridgeRequest","inputs":[{"name":"user","type":"address","indexed":true,"internalType":"address"},{"name":"tokenAddress","type":"address","indexed":true,"internalType":"address"},{"name":"bridgeRequestId","type":"uint256","indexed":true,"internalType":"uint256"},{"name":"amountIn","type":"uint256","indexed":false,"internalType":"uint256"},{"name":"amountOut","type":"uint256","indexed":false,"internalType":"uint256"},{"name":"destinationVault","type":"address","indexed":false,"internalType":"address"},{"name":"destinationAddress","type":"address","indexed":false,"internalType":"address"},{"name":"transferIndex","type":"uint256","indexed":false,"internalType":"uint256"},{"name":"canonicalAttestation","type":"bytes","indexed":false,"internalType":"bytes"}],"anonymous":false},{"type":"event","name":"EIP712DomainChanged","inputs":[],"anonymous":false},{"type":"event","name":"OwnershipTransferred","inputs":[{"name":"previousOwner","type":"address","indexed":true,"internalType":"address"},{"name":"newOwner","type":"address","indexed":true,"internalType":"address"}],"anonymous":false},{"type":"error","name":"ECDSAInvalidSignature","inputs":[]},{"type":"error","name":"ECDSAInvalidSignatureLength","inputs":[{"name":"length","type":"uint256","internalType":"uint256"}]},{"type":"error","name":"ECDSAInvalidSignatureS","inputs":[{"name":"s","type":"bytes32","internalType":"bytes32"}]},{"type":"error","name":"InvalidShortString","inputs":[]},{"type":"error","name":"OwnableInvalidOwner","inputs":[{"name":"owner","type":"address","internalType":"address"}]},{"type":"error","name":"OwnableUnauthorizedAccount","inputs":[{"name":"account","type":"address","internalType":"address"}]},{"type":"error","name":"ReentrancyGuardReentrantCall","inputs":[]},{"type":"error","name":"StringTooLong","inputs":[{"name":"str","type":"string","internalType":"string"}]}],"bytecode":{"object":"0x610160604052346101b6576040516100186040826101bb565b600b815260208101906a5a6172617468757374726160a81b8252604051916100416040846101bb565b600183526020830191603160f81b835233156101a05760008054336001600160a01b0319821681178355916001600160a01b03909116907f8be0079c531659141344cd1fd0a4f28419497f9722a3daafe3b4186f6b6457e09080a3600180556100a9816101f4565b610120526100b6846103b8565b61014052519020918260e05251902080610100524660a0526040519060208201927f8b73c3c69bb8fe3d512ecc4cf759cc79239f7b179b0ffacaa9a75d522b39400f8452604083015260608201524660808201523060a082015260a0815261011f60c0826101bb565b5190206080523060c0526000600a81905560098190556008819055600b80546001600160a01b031916331790556006556040516115de908161055782396080518161143c015260a051816114f9015260c05181611406015260e0518161148b015261010051816114b1015261012051816108340152610140518161085d0152f35b631e4fbdf760e01b600052600060045260246000fd5b600080fd5b601f909101601f19168101906001600160401b038211908210176101de57604052565b634e487b7160e01b600052604160045260246000fd5b9081516020811060001461028c575090601f815111610230576020815191015160208210610220571790565b6000198260200360031b1b161790565b6040519063305a27a960e01b8252602060048301528181519182602483015260005b8381106102745750508160006044809484010152601f80199101168101030190fd5b60208282018101516044878401015285935001610252565b6001600160401b0381116101de57600254600181811c911680156103ae575b602082101461039857601f8111610362575b50602092601f82116001146102fd57928192936000926102f2575b50508160011b916000199060031b1c19161760025560ff90565b0151905038806102d8565b601f198216936002600052806000209160005b86811061034a5750836001959610610331575b505050811b0160025560ff90565b015160001960f88460031b161c19169055388080610323565b91926020600181928685015181550194019201610310565b6002600052601f6020600020910160051c810190601f830160051c015b81811061038c57506102bd565b6000815560010161037f565b634e487b7160e01b600052602260045260246000fd5b90607f16906102ab565b90815160208110600014610440575090601f8151116103e4576020815191015160208210610220571790565b6040519063305a27a960e01b8252602060048301528181519182602483015260005b8381106104285750508160006044809484010152601f80199101168101030190fd5b60208282018101516044878401015285935001610406565b6001600160401b0381116101de57600354600181811c9116801561054c575b602082101461039857601f8111610516575b50602092601f82116001146104b157928192936000926104a6575b50508160011b916000199060031b1c19161760035560ff90565b01519050388061048c565b601f198216936003600052806000209160005b8681106104fe57508360019596106104e5575b505050811b0160035560ff90565b015160001960f88460031b161c191690553880806104d7565b919260206001819286850151815501940192016104c4565b6003600052601f6020600020910160051c810190601f830160051c015b8181106105405750610471565b60008155600101610533565b90607f169061045f56fe6080604052600436101561001b575b361561001957600080fd5b005b60003560e01c8062a3a65a14610af057806331a9bd9614610acf5780633265de8e14610a8d578063463577b914610a1957806346713cc4146109f05780634c87b25e146109ad5780636ee1cc171461098f578063715018a61461093657806382b12dd71461091857806384b0196e1461081b5780638c60205e146107fd5780638da5cb5b146107d4578063998cdf83146107b35780639f89c8a2146106f2578063af4da112146106ad578063b073dae914610357578063dab8b94214610215578063e3a30deb146101f4578063f2fde38b1461016b578063f64474d51461014d5763f7adc3b30361000e5734610148576020366003190112610148576004356001600160401b0381116101485761014061013b6020923690600401610f8d565b611187565b604051908152f35b600080fd5b34610148576000366003190112610148576020600654604051908152f35b3461014857602036600319011261014857610184610ec4565b61018c611278565b6001600160a01b031680156101de57600080546001600160a01b03198116831782556001600160a01b0316907f8be0079c531659141344cd1fd0a4f28419497f9722a3daafe3b4186f6b6457e09080a3005b631e4fbdf760e01b600052600060045260246000fd5b346101485760203660031901126101485761020d611278565b600435600a55005b34610148576040366003190112610148576004356001600160401b03811161014857610245903690600401610f46565b61024d611256565b33600052600560205260ff604060002054161561031d5760209061027a604051918281519485920161102b565b806024359281010390207feb025381a670ddf36d45dab7eecb37e2ed3eca65cb3f70b4a921939a79d4bec5600080a3600954804710610316575b600080808093335af16102c5611157565b50156102d15760018055005b60405162461bcd60e51b815260206004820152601960248201527f4661696c656420746f2073656e642041565320726577617264000000000000006044820152606490fd5b50476102b4565b60405162461bcd60e51b815260206004820152601260248201527124b73b30b634b21020ab299039b4b3b732b960711b6044820152606490fd5b34610148576060366003190112610148576004356001600160401b03811161014857610387903690600401610f46565b6024356001600160401b038111610148576103a6903690600401610f46565b6044356001600160401b038111610148576103e26103cb6103eb923690600401610f8d565b936103d4611256565b6103dd85611187565b6112a1565b909291926112dd565b600b546001600160a01b03908116911603610668576103e2610410916103dd84611187565b6001600160a01b031660009081526005602052604090205460ff161561062f5760808101516001600160a01b031630036105ea576020818101805160608401805160405163095ea7b360e01b81523060048201526024810191909152949293909291859060449082906000906001600160a01b03165af19283156105c3576104df946020946105cf575b505160a09190910151915160405163a9059cbb60e01b81526001600160a01b039384166004820152602481019190915293849290911690829060009082906044820190565b03925af180156105c357610596575b50600a543a8102908082043a149015171561058057804710610579575b80610517575b60018055005b600080808093335af1610528611157565b50156105345780610511565b60405162461bcd60e51b815260206004820152601860248201527f4661696c656420746f2073656e64206372616e6b2066656500000000000000006044820152606490fd5b504761050b565b634e487b7160e01b600052601160045260246000fd5b6105b79060203d6020116105bc575b6105af8183610f0a565b81019061113f565b6104ee565b503d6105a5565b6040513d6000823e3d90fd5b6105e590853d87116105bc576105af8183610f0a565b61049a565b60405162461bcd60e51b815260206004820152601960248201527f496e76616c69642064657374696e6174696f6e207661756c74000000000000006044820152606490fd5b60405162461bcd60e51b8152602060048201526011602482015270496e76616c6964207369676e617475726560781b6044820152606490fd5b60405162461bcd60e51b815260206004820152601b60248201527f496e76616c69642063616e6f6e6963616c207369676e617475726500000000006044820152606490fd5b34610148576020366003190112610148576106c6610ec4565b6106ce611278565b6001600160a01b03166000908152600560205260409020805460ff19166001179055005b34610148576020366003190112610148576004356000526007602052604060002060018060a01b038154166107af600760018060a01b03600185015416936002810154600382015460018060a01b036004840154169060018060a01b036005850154169261077660068601549561076f60405180998193016110ad565b0387610f0a565b6040519889988952602089015260408801526060870152608086015260a085015260c084015261010060e084015261010083019061104e565b0390f35b34610148576020366003190112610148576107cc611278565b600435600855005b34610148576000366003190112610148576000546040516001600160a01b039091168152602090f35b34610148576000366003190112610148576020600a54604051908152f35b34610148576000366003190112610148576108ba6108587f0000000000000000000000000000000000000000000000000000000000000000611365565b6108817f00000000000000000000000000000000000000000000000000000000000000006113cc565b60206108c8604051926108948385610f0a565b600084526000368137604051958695600f60f81b875260e08588015260e087019061104e565b90858203604087015261104e565b466060850152306080850152600060a085015283810360c085015281808451928381520193019160005b82811061090157505050500390f35b8351855286955093810193928101926001016108f2565b34610148576000366003190112610148576020600854604051908152f35b346101485760003660031901126101485761094f611278565b600080546001600160a01b0319811682556001600160a01b03167f8be0079c531659141344cd1fd0a4f28419497f9722a3daafe3b4186f6b6457e08280a3005b34610148576000366003190112610148576020600954604051908152f35b34610148576020366003190112610148576109c6610ec4565b6109ce611278565b600b80546001600160a01b0319166001600160a01b0392909216919091179055005b3461014857600036600319011261014857600b546040516001600160a01b039091168152602090f35b34610148576040366003190112610148576004356001600160401b03811161014857610a49903690600401610f8d565b602435906001600160401b038211610148576103e2610a7b916103dd610a756020953690600401610f46565b91611187565b6040516001600160a01b039091168152f35b3461014857602036600319011261014857610aa6610ec4565b610aae611278565b6001600160a01b03166000908152600560205260409020805460ff19169055005b3461014857602036600319011261014857610ae8611278565b600435600955005b60c036600319011261014857610b04610ec4565b6044356064356001600160a01b0381169060243590829003610148576084356001600160a01b038116908190036101485760a4356001600160401b03811161014857610b54903690600401610f46565b94610b5d611256565b6008543403610e88576040516323b872dd60e01b8152336004820152306024820152604481018490526001600160a01b039190911693906020816064816000895af19081156105c357600091610e69575b5015610e3257600794336000526004602052604060002054936006549586818a7f8ed7e4b72075b17af0eebc2b80fcd8063064321a9a579f84a12ce0cb998b35d76040518681528760208201528860408201528960608201528a608082015260c060a082015280610c24339460c083019061104e565b0390a460405196610c3488610eee565b33885260208089019283526040808a0194855260608a0195865260808a0196875260a08a0197885260c08a0198895260e08a019b8c526000928352908a90529020965187546001600160a01b03199081166001600160a01b039283161789559151600189018054841691831691909117905591516002880155915160038701559151600486018054831691841691909117905591516005850180549093169116179055516006820155915180519092909101906001600160401b038111610e1c57610cff8254611073565b601f8111610dd4575b50602092601f8211600114610d715792819293600092610d66575b50508160011b916000199060031b1c19161790555b610d43600654611130565b6006553360005260046020526040600020610d5e8154611130565b905560018055005b015190508380610d23565b601f1982169383600052806000209160005b868110610dbc5750836001959610610da3575b505050811b019055610d38565b015160001960f88460031b161c19169055838080610d96565b91926020600181928685015181550194019201610d83565b826000526020600020601f830160051c81019160208410610e12575b601f0160051c01905b818110610e065750610d08565b60008155600101610df9565b9091508190610df0565b634e487b7160e01b600052604160045260246000fd5b60405162461bcd60e51b815260206004820152600f60248201526e151c985b9cd9995c8819985a5b1959608a1b6044820152606490fd5b610e82915060203d6020116105bc576105af8183610f0a565b87610bae565b60405162461bcd60e51b8152602060048201526014602482015273496e636f7272656374206272696467652066656560601b6044820152606490fd5b600435906001600160a01b038216820361014857565b35906001600160a01b038216820361014857565b61010081019081106001600160401b03821117610e1c57604052565b90601f801991011681019081106001600160401b03821117610e1c57604052565b6001600160401b038111610e1c57601f01601f191660200190565b81601f8201121561014857803590610f5d82610f2b565b92610f6b6040519485610f0a565b8284526020838301011161014857816000926020809301838601378301015290565b9190610100838203126101485760405190610fa782610eee565b8193610fb281610eda565b8352610fc060208201610eda565b60208401526040810135604084015260608101356060840152610fe560808201610eda565b6080840152610ff660a08201610eda565b60a084015260c081013560c084015260e0810135916001600160401b0383116101485760e0926110269201610f46565b910152565b60005b83811061103e5750506000910152565b818101518382015260200161102e565b906020916110678151809281855285808601910161102b565b601f01601f1916010190565b90600182811c921680156110a3575b602083101461108d57565b634e487b7160e01b600052602260045260246000fd5b91607f1691611082565b600092918154916110bd83611073565b808352926001811690811561111357506001146110d957505050565b60009081526020812093945091925b8383106110f9575060209250010190565b6001816020929493945483858701015201910191906110e8565b915050602093945060ff929192191683830152151560051b010190565b60001981146105805760010190565b90816020910312610148575180151581036101485790565b3d15611182573d9061116882610f2b565b916111766040519384610f0a565b82523d6000602084013e565b606090565b60429060018060a01b038151169060018060a01b0360208201511690604081015190606081015160018060a01b036080830151169060c060018060a01b0360a085015116930151936040519560208701977f24d70767461c06c1aeacae790adba5d3dff0d413ba8713fb9926686d4c4ceef5895260408801526060870152608086015260a085015260c084015260e0830152610100820152610100815261123061012082610f0a565b51902061123b611403565b906040519161190160f01b8352600283015260228201522090565b600260015414611267576002600155565b633ee5aeb560e01b60005260046000fd5b6000546001600160a01b0316330361128c57565b63118cdaa760e01b6000523360045260246000fd5b81519190604183036112d2576112cb92506020820151906060604084015193015160001a9061151f565b9192909190565b505060009160029190565b919091600481101561134f57806112f357509050565b60006001820361130e5763f645eedf60e01b60005260046000fd5b506002810361132c578263fce698f760e01b60005260045260246000fd5b909160036000921461133c575050565b6335e2f38360e21b825260045260249150fd5b634e487b7160e01b600052602160045260246000fd5b60ff81146113af5760ff811690601f821161139e5760408051926113898285610f0a565b6020808552840191601f190136833783525290565b632cd44ac360e21b60005260046000fd5b506040516113c9816113c28160026110ad565b0382610f0a565b90565b60ff81146113f05760ff811690601f821161139e5760408051926113898285610f0a565b506040516113c9816113c28160036110ad565b307f00000000000000000000000000000000000000000000000000000000000000006001600160a01b031614806114f6575b1561145e577f000000000000000000000000000000000000000000000000000000000000000090565b60405160208101907f8b73c3c69bb8fe3d512ecc4cf759cc79239f7b179b0ffacaa9a75d522b39400f82527f000000000000000000000000000000000000000000000000000000000000000060408201527f000000000000000000000000000000000000000000000000000000000000000060608201524660808201523060a082015260a081526114f060c082610f0a565b51902090565b507f00000000000000000000000000000000000000000000000000000000000000004614611435565b91907f7fffffffffffffffffffffffffffffff5d576e7357a4501ddfe92f46681b20a0841161159c579160209360809260ff60009560405194855216868401526040830152606082015282805260015afa156105c3576000516001600160a01b038116156115905790600090600090565b50600090600190600090565b5050506000916003919056fea2646970667358221220ad124934739e12ec54a265eb28bfbff09e41869f883399feaca60cec62930bab64736f6c634300081a0033","linkReferences":{}},"methodIdentifiers":{"AVSReward()":"6ee1cc17","bridge(address,uint256,uint256,address,address,bytes)":"00a3a65a","bridgeFee()":"82b12dd7","bridgeRequests(uint256)":"9f89c8a2","canonicalSigner()":"46713cc4","crankGasCost()":"8c60205e","currentBridgeRequestId()":"f64474d5","eip712Domain()":"84b0196e","getDigest((address,address,uint256,uint256,address,address,uint256,bytes))":"f7adc3b3","getSigner((address,address,uint256,uint256,address,address,uint256,bytes),bytes)":"463577b9","owner()":"8da5cb5b","publishAttestation(bytes,uint256)":"dab8b942","releaseFunds(bytes,bytes,(address,address,uint256,uint256,address,address,uint256,bytes))":"b073dae9","removeWhitelistedSigner(address)":"3265de8e","renounceOwnership()":"715018a6","setAVSReward(uint256)":"31a9bd96","setBridgeFee(uint256)":"998cdf83","setCanonicalSigner(address)":"4c87b25e","setCrankGasCost(uint256)":"e3a30deb","transferOwnership(address)":"f2fde38b","whitelistSigner(address)":"af4da112"},"id":41}